{
  "contractName": "DappToken",
  "abi": [
    {
      "constant": true,
      "inputs": [],
      "name": "mintingFinished",
      "outputs": [
        {
          "name": "",
          "type": "bool"
        }
      ],
      "payable": false,
      "stateMutability": "view",
      "type": "function"
    },
    {
      "constant": true,
      "inputs": [],
      "name": "name",
      "outputs": [
        {
          "name": "",
          "type": "string"
        }
      ],
      "payable": false,
      "stateMutability": "view",
      "type": "function"
    },
    {
      "constant": false,
      "inputs": [
        {
          "name": "_spender",
          "type": "address"
        },
        {
          "name": "_value",
          "type": "uint256"
        }
      ],
      "name": "approve",
      "outputs": [
        {
          "name": "",
          "type": "bool"
        }
      ],
      "payable": false,
      "stateMutability": "nonpayable",
      "type": "function"
    },
    {
      "constant": true,
      "inputs": [],
      "name": "totalSupply",
      "outputs": [
        {
          "name": "",
          "type": "uint256"
        }
      ],
      "payable": false,
      "stateMutability": "view",
      "type": "function"
    },
    {
      "constant": false,
      "inputs": [
        {
          "name": "_from",
          "type": "address"
        },
        {
          "name": "_to",
          "type": "address"
        },
        {
          "name": "_value",
          "type": "uint256"
        }
      ],
      "name": "transferFrom",
      "outputs": [
        {
          "name": "",
          "type": "bool"
        }
      ],
      "payable": false,
      "stateMutability": "nonpayable",
      "type": "function"
    },
    {
      "constant": true,
      "inputs": [],
      "name": "decimals",
      "outputs": [
        {
          "name": "",
          "type": "uint8"
        }
      ],
      "payable": false,
      "stateMutability": "view",
      "type": "function"
    },
    {
      "constant": false,
      "inputs": [],
      "name": "unpause",
      "outputs": [],
      "payable": false,
      "stateMutability": "nonpayable",
      "type": "function"
    },
    {
      "constant": false,
      "inputs": [
        {
          "name": "_to",
          "type": "address"
        },
        {
          "name": "_amount",
          "type": "uint256"
        }
      ],
      "name": "mint",
      "outputs": [
        {
          "name": "",
          "type": "bool"
        }
      ],
      "payable": false,
      "stateMutability": "nonpayable",
      "type": "function"
    },
    {
      "constant": true,
      "inputs": [],
      "name": "paused",
      "outputs": [
        {
          "name": "",
          "type": "bool"
        }
      ],
      "payable": false,
      "stateMutability": "view",
      "type": "function"
    },
    {
      "constant": false,
      "inputs": [
        {
          "name": "_spender",
          "type": "address"
        },
        {
          "name": "_subtractedValue",
          "type": "uint256"
        }
      ],
      "name": "decreaseApproval",
      "outputs": [
        {
          "name": "success",
          "type": "bool"
        }
      ],
      "payable": false,
      "stateMutability": "nonpayable",
      "type": "function"
    },
    {
      "constant": true,
      "inputs": [
        {
          "name": "_owner",
          "type": "address"
        }
      ],
      "name": "balanceOf",
      "outputs": [
        {
          "name": "",
          "type": "uint256"
        }
      ],
      "payable": false,
      "stateMutability": "view",
      "type": "function"
    },
    {
      "constant": false,
      "inputs": [],
      "name": "renounceOwnership",
      "outputs": [],
      "payable": false,
      "stateMutability": "nonpayable",
      "type": "function"
    },
    {
      "constant": false,
      "inputs": [],
      "name": "finishMinting",
      "outputs": [
        {
          "name": "",
          "type": "bool"
        }
      ],
      "payable": false,
      "stateMutability": "nonpayable",
      "type": "function"
    },
    {
      "constant": false,
      "inputs": [],
      "name": "pause",
      "outputs": [],
      "payable": false,
      "stateMutability": "nonpayable",
      "type": "function"
    },
    {
      "constant": true,
      "inputs": [],
      "name": "owner",
      "outputs": [
        {
          "name": "",
          "type": "address"
        }
      ],
      "payable": false,
      "stateMutability": "view",
      "type": "function"
    },
    {
      "constant": true,
      "inputs": [],
      "name": "symbol",
      "outputs": [
        {
          "name": "",
          "type": "string"
        }
      ],
      "payable": false,
      "stateMutability": "view",
      "type": "function"
    },
    {
      "constant": false,
      "inputs": [
        {
          "name": "_to",
          "type": "address"
        },
        {
          "name": "_value",
          "type": "uint256"
        }
      ],
      "name": "transfer",
      "outputs": [
        {
          "name": "",
          "type": "bool"
        }
      ],
      "payable": false,
      "stateMutability": "nonpayable",
      "type": "function"
    },
    {
      "constant": false,
      "inputs": [
        {
          "name": "_spender",
          "type": "address"
        },
        {
          "name": "_addedValue",
          "type": "uint256"
        }
      ],
      "name": "increaseApproval",
      "outputs": [
        {
          "name": "success",
          "type": "bool"
        }
      ],
      "payable": false,
      "stateMutability": "nonpayable",
      "type": "function"
    },
    {
      "constant": true,
      "inputs": [
        {
          "name": "_owner",
          "type": "address"
        },
        {
          "name": "_spender",
          "type": "address"
        }
      ],
      "name": "allowance",
      "outputs": [
        {
          "name": "",
          "type": "uint256"
        }
      ],
      "payable": false,
      "stateMutability": "view",
      "type": "function"
    },
    {
      "constant": false,
      "inputs": [
        {
          "name": "_newOwner",
          "type": "address"
        }
      ],
      "name": "transferOwnership",
      "outputs": [],
      "payable": false,
      "stateMutability": "nonpayable",
      "type": "function"
    },
    {
      "inputs": [
        {
          "name": "_name",
          "type": "string"
        },
        {
          "name": "_symbol",
          "type": "string"
        },
        {
          "name": "_decimals",
          "type": "uint256"
        }
      ],
      "payable": false,
      "stateMutability": "nonpayable",
      "type": "constructor"
    },
    {
      "anonymous": false,
      "inputs": [
        {
          "indexed": true,
          "name": "to",
          "type": "address"
        },
        {
          "indexed": false,
          "name": "amount",
          "type": "uint256"
        }
      ],
      "name": "Mint",
      "type": "event"
    },
    {
      "anonymous": false,
      "inputs": [],
      "name": "MintFinished",
      "type": "event"
    },
    {
      "anonymous": false,
      "inputs": [],
      "name": "Pause",
      "type": "event"
    },
    {
      "anonymous": false,
      "inputs": [],
      "name": "Unpause",
      "type": "event"
    },
    {
      "anonymous": false,
      "inputs": [
        {
          "indexed": true,
          "name": "previousOwner",
          "type": "address"
        }
      ],
      "name": "OwnershipRenounced",
      "type": "event"
    },
    {
      "anonymous": false,
      "inputs": [
        {
          "indexed": true,
          "name": "previousOwner",
          "type": "address"
        },
        {
          "indexed": true,
          "name": "newOwner",
          "type": "address"
        }
      ],
      "name": "OwnershipTransferred",
      "type": "event"
    },
    {
      "anonymous": false,
      "inputs": [
        {
          "indexed": true,
          "name": "owner",
          "type": "address"
        },
        {
          "indexed": true,
          "name": "spender",
          "type": "address"
        },
        {
          "indexed": false,
          "name": "value",
          "type": "uint256"
        }
      ],
      "name": "Approval",
      "type": "event"
    },
    {
      "anonymous": false,
      "inputs": [
        {
          "indexed": true,
          "name": "from",
          "type": "address"
        },
        {
          "indexed": true,
          "name": "to",
          "type": "address"
        },
        {
          "indexed": false,
          "name": "value",
          "type": "uint256"
        }
      ],
      "name": "Transfer",
      "type": "event"
    }
  ],
  "bytecode": "0x60806040526005805460a860020a61ffff021916905534801561002157600080fd5b5060405162000ffb38038062000ffb833981016040908152815160208084015192840151918401805190949390930192849184918491610066916003918601906100ab565b50815161007a9060049060208501906100ab565b506005805460ff191660ff929092169190911761010060a860020a0319166101003302179055506101469350505050565b828054600181600116156101000203166002900490600052602060002090601f016020900481019282601f106100ec57805160ff1916838001178555610119565b82800160010185558215610119579182015b828111156101195782518255916020019190600101906100fe565b50610125929150610129565b5090565b61014391905b80821115610125576000815560010161012f565b90565b610ea580620001566000396000f3006080604052600436106101115763ffffffff7c010000000000000000000000000000000000000000000000000000000060003504166305d2035b811461011657806306fdde031461013f578063095ea7b3146101c957806318160ddd146101ed57806323b872dd14610214578063313ce5671461023e5780633f4ba83a1461026957806340c10f19146102805780635c975abb146102a457806366188463146102b957806370a08231146102dd578063715018a6146102fe5780637d64bcb4146103135780638456cb59146103285780638da5cb5b1461033d57806395d89b411461036e578063a9059cbb14610383578063d73dd623146103a7578063dd62ed3e146103cb578063f2fde38b146103f2575b600080fd5b34801561012257600080fd5b5061012b610413565b604080519115158252519081900360200190f35b34801561014b57600080fd5b50610154610423565b6040805160208082528351818301528351919283929083019185019080838360005b8381101561018e578181015183820152602001610176565b50505050905090810190601f1680156101bb5780820380516001836020036101000a031916815260200191505b509250505060405180910390f35b3480156101d557600080fd5b5061012b600160a060020a03600435166024356104b1565b3480156101f957600080fd5b506102026104dc565b60408051918252519081900360200190f35b34801561022057600080fd5b5061012b600160a060020a03600435811690602435166044356104e2565b34801561024a57600080fd5b5061025361050f565b6040805160ff9092168252519081900360200190f35b34801561027557600080fd5b5061027e610518565b005b34801561028c57600080fd5b5061012b600160a060020a0360043516602435610596565b3480156102b057600080fd5b5061012b6106a5565b3480156102c557600080fd5b5061012b600160a060020a03600435166024356106b5565b3480156102e957600080fd5b50610202600160a060020a03600435166106d9565b34801561030a57600080fd5b5061027e6106f4565b34801561031f57600080fd5b5061012b61076c565b34801561033457600080fd5b5061027e6107f7565b34801561034957600080fd5b5061035261087a565b60408051600160a060020a039092168252519081900360200190f35b34801561037a57600080fd5b5061015461088e565b34801561038f57600080fd5b5061012b600160a060020a03600435166024356108e9565b3480156103b357600080fd5b5061012b600160a060020a036004351660243561090d565b3480156103d757600080fd5b50610202600160a060020a0360043581169060243516610931565b3480156103fe57600080fd5b5061027e600160a060020a036004351661095c565b60055460b060020a900460ff1681565b6003805460408051602060026001851615610100026000190190941693909304601f810184900484028201840190925281815292918301828280156104a95780601f1061047e576101008083540402835291602001916104a9565b820191906000526020600020905b81548152906001019060200180831161048c57829003601f168201915b505050505081565b60055460009060a860020a900460ff16156104cb57600080fd5b6104d58383610984565b9392505050565b60015490565b60055460009060a860020a900460ff16156104fc57600080fd5b6105078484846109ea565b949350505050565b60055460ff1681565b6005546101009004600160a060020a0316331461053457600080fd5b60055460a860020a900460ff16151561054c57600080fd5b6005805475ff000000000000000000000000000000000000000000191690556040517f7805862f689e2f13df9f062ff482ad3ad112aca9e0847911ed832e158c525b3390600090a1565b6005546000906101009004600160a060020a031633146105b557600080fd5b60055460b060020a900460ff16156105cc57600080fd5b6001546105df908363ffffffff610b6116565b600155600160a060020a03831660009081526020819052604090205461060b908363ffffffff610b6116565b600160a060020a03841660008181526020818152604091829020939093558051858152905191927f0f6798a560793a54c3bcfe86a93cde1e73087d944c0ea20544137d412139688592918290030190a2604080518381529051600160a060020a038516916000917fddf252ad1be2c89b69c2b068fc378daa952ba7f163c4a11628f55a4df523b3ef9181900360200190a350600192915050565b60055460a860020a900460ff1681565b60055460009060a860020a900460ff16156106cf57600080fd5b6104d58383610b74565b600160a060020a031660009081526020819052604090205490565b6005546101009004600160a060020a0316331461071057600080fd5b600554604051610100909104600160a060020a0316907ff8df31144d9c2f0f6b59d69b8b98abd5459d07f2742c4df920b25aae33c6482090600090a26005805474ffffffffffffffffffffffffffffffffffffffff0019169055565b6005546000906101009004600160a060020a0316331461078b57600080fd5b60055460b060020a900460ff16156107a257600080fd5b6005805476ff00000000000000000000000000000000000000000000191660b060020a1790556040517fae5184fba832cb2b1f702aca6117b8d265eaf03ad33eb133f19dde0f5920fa0890600090a150600190565b6005546101009004600160a060020a0316331461081357600080fd5b60055460a860020a900460ff161561082a57600080fd5b6005805475ff000000000000000000000000000000000000000000191660a860020a1790556040517f6985a02210a168e66602d3235cb6db0e70f92b3ba4d376a33c0f3d9434bff62590600090a1565b6005546101009004600160a060020a031681565b6004805460408051602060026001851615610100026000190190941693909304601f810184900484028201840190925281815292918301828280156104a95780601f1061047e576101008083540402835291602001916104a9565b60055460009060a860020a900460ff161561090357600080fd5b6104d58383610c64565b60055460009060a860020a900460ff161561092757600080fd5b6104d58383610d45565b600160a060020a03918216600090815260026020908152604080832093909416825291909152205490565b6005546101009004600160a060020a0316331461097857600080fd5b61098181610dde565b50565b336000818152600260209081526040808320600160a060020a038716808552908352818420869055815186815291519394909390927f8c5be1e5ebec7d5bd14f71427d1e84f3dd0314c0f7b2291e5b200ac8c7c3b925928290030190a350600192915050565b6000600160a060020a0383161515610a0157600080fd5b600160a060020a038416600090815260208190526040902054821115610a2657600080fd5b600160a060020a0384166000908152600260209081526040808320338452909152902054821115610a5657600080fd5b600160a060020a038416600090815260208190526040902054610a7f908363ffffffff610e6716565b600160a060020a038086166000908152602081905260408082209390935590851681522054610ab4908363ffffffff610b6116565b600160a060020a03808516600090815260208181526040808320949094559187168152600282528281203382529091522054610af6908363ffffffff610e6716565b600160a060020a03808616600081815260026020908152604080832033845282529182902094909455805186815290519287169391927fddf252ad1be2c89b69c2b068fc378daa952ba7f163c4a11628f55a4df523b3ef929181900390910190a35060019392505050565b81810182811015610b6e57fe5b92915050565b336000908152600260209081526040808320600160a060020a038616845290915281205480831115610bc957336000908152600260209081526040808320600160a060020a0388168452909152812055610bfe565b610bd9818463ffffffff610e6716565b336000908152600260209081526040808320600160a060020a03891684529091529020555b336000818152600260209081526040808320600160a060020a0389168085529083529281902054815190815290519293927f8c5be1e5ebec7d5bd14f71427d1e84f3dd0314c0f7b2291e5b200ac8c7c3b925929181900390910190a35060019392505050565b6000600160a060020a0383161515610c7b57600080fd5b33600090815260208190526040902054821115610c9757600080fd5b33600090815260208190526040902054610cb7908363ffffffff610e6716565b3360009081526020819052604080822092909255600160a060020a03851681522054610ce9908363ffffffff610b6116565b600160a060020a038416600081815260208181526040918290209390935580518581529051919233927fddf252ad1be2c89b69c2b068fc378daa952ba7f163c4a11628f55a4df523b3ef9281900390910190a350600192915050565b336000908152600260209081526040808320600160a060020a0386168452909152812054610d79908363ffffffff610b6116565b336000818152600260209081526040808320600160a060020a0389168085529083529281902085905580519485525191937f8c5be1e5ebec7d5bd14f71427d1e84f3dd0314c0f7b2291e5b200ac8c7c3b925929081900390910190a350600192915050565b600160a060020a0381161515610df357600080fd5b600554604051600160a060020a0380841692610100900416907f8be0079c531659141344cd1fd0a4f28419497f9722a3daafe3b4186f6b6457e090600090a360058054600160a060020a039092166101000274ffffffffffffffffffffffffffffffffffffffff0019909216919091179055565b600082821115610e7357fe5b509003905600a165627a7a723058202080f6a2c043fd396ed5b441d4f6a55058ded637d90e78b43a98f6010c3b4b500029",
  "source": "pragma solidity ^0.4.24;\n\nimport \"openzeppelin-solidity/contracts/token/ERC20/StandardToken.sol\";\nimport \"openzeppelin-solidity/contracts/token/ERC20/DetailedERC20.sol\";\nimport \"openzeppelin-solidity/contracts/token/ERC20/PausableToken.sol\";\nimport \"openzeppelin-solidity/contracts/token/ERC20/MintableToken.sol\";\n\ncontract DappToken is\n    StandardToken,\n    DetailedERC20,\n    PausableToken,\n    MintableToken\n{\n    constructor(\n        string _name,\n        string _symbol,\n        uint _decimals\n    ) public DetailedERC20(_name, _symbol, uint8(_decimals)) {}\n}\n",
  "sourcePath": "/Users/faditayih/Documents/Web3_Projects/ICO/contracts/DappToken.sol",
  "compiler": {
    "name": "solc",
    "version": "0.4.26+commit.4563c3fc.Emscripten.clang"
  },
  "schemaVersion": "3.4.16",
  "updatedAt": "2026-06-20T07:25:44.820Z",
  "devdoc": {
    "methods": {
      "allowance(address,address)": {
        "details": "Function to check the amount of tokens that an owner allowed to a spender.",
        "params": {
          "_owner": "address The address which owns the funds.",
          "_spender": "address The address which will spend the funds."
        },
        "return": "A uint256 specifying the amount of tokens still available for the spender."
      },
      "balanceOf(address)": {
        "details": "Gets the balance of the specified address.",
        "params": {
          "_owner": "The address to query the the balance of."
        },
        "return": "An uint256 representing the amount owned by the passed address."
      },
      "finishMinting()": {
        "details": "Function to stop minting new tokens.",
        "return": "True if the operation was successful."
      },
      "mint(address,uint256)": {
        "details": "Function to mint tokens",
        "params": {
          "_amount": "The amount of tokens to mint.",
          "_to": "The address that will receive the minted tokens."
        },
        "return": "A boolean that indicates if the operation was successful."
      },
      "pause()": {
        "details": "called by the owner to pause, triggers stopped state"
      },
      "renounceOwnership()": {
        "details": "Allows the current owner to relinquish control of the contract."
      },
      "totalSupply()": {
        "details": "total number of tokens in existence"
      },
      "transferOwnership(address)": {
        "details": "Allows the current owner to transfer control of the contract to a newOwner.",
        "params": {
          "_newOwner": "The address to transfer ownership to."
        }
      },
      "unpause()": {
        "details": "called by the owner to unpause, returns to normal state"
      }
    }
  },
  "userdoc": {
    "methods": {}
  }
}